:020000040800F2
:100000000050002071010008C1010008C101000872
:10001000C1010008C1010008C10100080000000082
:10002000000000000000000000000000C101000806
:10003000C101000800000000C10100087D050008A2
:10004000C1010008C1010008C1010008C101000888
:10005000C1010008C1010008C1010008C101000878
:10006000C1010008C1010008C1010008C101000868
:10007000C1010008C1010008C1010008C101000858
:10008000C1010008C1010008C1010008C101000848
:10009000C1010008C1010008C1010008C101000838
:1000A000C1010008C1010008C1010008C101000828
:1000B000C1010008C1010008C1010008C101000818
:1000C000C1010008C1010008C1010008C101000808
:1000D000C1010008C1010008C1010008C1010008F8
:1000E000C1010008C101000800000000C1010008B2
:1000F000C1010008C1010008C1010008C1010008D8
:10010000C1010008C1010008C1010008C1010008C7
:10011000C1010008C1010008C1010008C1010008B7
:10012000C1010008C1010008C1010008C1010008A7
:1001300010B5054C237833B9044B13B10448AFF321
:1001400000800123237010BD00000020000000008B
:100150005C06000808B5034B1BB103490348AFF325
:10016000008008BD00000000040000205C060008BC
:100170000D488546AFF300800C480D490D4A002319
:1001800002E0D458C4500433C4188C42F9D30A4A4C
:100190000A4C002301E013600432A242FBD300F0BA
:1001A00039FA00F01FFAFEE700500020000000209E
:1001B000000000207C06000800000020280000202D
:1001C000FEE7000080B483B000AF0346FB710B462E
:1001D000BB7113467B71BB79022B7AD0022B00F3E3
:1001E000B680002B02D0012B3AD0B0E0FB79072B70
:1001F00017D8594B1B68FA7992000F2101FA02F2C5
:10020000D2431146544A0B401360534B1B68797913
:10021000FA79920001FA02F211464F4A0B43136039
:1002200090E0FB790F2B00F28D80FB79083BFB718E
:10023000494B5B68FA7992000F2101FA02F2D2432E
:100240001146454A0B405360434B5B687979FA7914
:10025000920001FA02F211463F4A0B43536071E0EB
:10026000FB79072B17D83D4B1B68FA7992000F21B9
:1002700001FA02F2D2431146384A0B401360374B61
:100280001B687979FA79920001FA02F21146334A31
:100290000B43136058E0FB790F2B55D8FB79083BD3
:1002A000FB712E4B5B68FA7992000F2101FA02F282
:1002B000D2431146294A0B405360284B5B68797939
:1002C000FA79920001FA02F21146244A0B43536074
:1002D0003AE0FB79072B17D8214B1B68FA7992007B
:1002E0000F2101FA02F2D24311461D4A0B4013605E
:1002F0001B4B1B687979FA79920001FA02F21146D8
:10030000174A0B43136021E0FB790F2B1ED8FB79B2
:10031000083BFB71124B5B68FA7992000F2101FADE
:1003200002F2D24311460E4A0B4053600C4B5B68FD
:100330007979FA79920001FA02F21146084A0B43E0
:10034000536003E000BF02E000BF00E000BF00BF59
:100350000C37BD4680BC704700080140000C0140CE
:100360000000014080B483B000AF0346FB710B4630
:10037000BB7113467B71BB79022B22D0022B33DC7D
:10038000002B02D0012B0ED02EE07B79012B03D164
:10039000184B0122DA6022E07B79002B1FD1154B2C
:1003A0000022DA601BE07B79012B03D1114B012283
:1003B000DA6016E07B79002B13D10E4B0022DA6055
:1003C0000FE07B79012B03D10A4B0122DA600AE0AE
:1003D0007B79002B07D1074B0022DA6003E000BFD6
:1003E00002E000BF00E000BF00BF0C37BD4680BC8C
:1003F000704700BF0008014080B400AF184A13786E
:1004000043F001031370164A1378102161F3C703F8
:100410001370144A13786FF301031370104A937822
:1004200043F0080393700F4A13780D2161F307130B
:1004300013700C4A5378052161F302035370094A83
:100440005378052161F3C5035370064AD37805211B
:1004500061F30203D37000BFBD4680BC704700BF8C
:10046000001002400410024080B483B000AF034685
:100470000A46FB711346BB71BB791F2B2AD8FB7947
:10048000022B1CD0022B25DC002B02D0012B0BD021
:1004900020E0134B1B68BA79012101FA02F21146E0
:1004A0000F4A0B43136015E00E4B1B68BA7901210C
:1004B00001FA02F211460B4A0B4313600AE00A4BA1
:1004C0001B68BA79012101FA02F21146064A0B4370
:1004D000136000BF00BF0C37BD4680BC704700BF33
:1004E000141002401C1002401810024080B400AFEB
:1004F000094B1B68084A43F004031360064B1B6852
:10050000054A43F002031360044B00221A6000BF47
:10051000BD4680BC704700BF10E000E02000002016
:1005200080B485B000AF786039603B68002B17D08D
:100530000023FB607B684FF4FA5202FB03F3FB607D
:100540000A4AFB68013B1360094B00221A60094A02
:100550003B681360084B1B68074A43F001031360B4
:1005600000BF1437BD4680BC704700BF14E000E0F8
:1005700018E000E01C00002010E000E080B500AFB3
:10058000054B1B68002B02D0034B1B689847034B9D
:100590001B6800BF80BD00BF1C00002010E000E011
:1005A00080B500AF0E4B1B780133DAB20C4B1A70DA
:1005B0000B4B1B78012B05D1012200210020FFF7F6
:1005C000D1FE0BE0064B1B78022B07D10022002145
:1005D0000020FFF7C7FE024B00221A7000BF80BD4B
:1005E0002400002080B500AFFFF706FF02210220A3
:1005F000FFF73AFF012200210020FFF7E3FDFFF79C
:1006000075FF034940F2DC50FFF78AFFF9E700BFAE
:10061000A105000870B500260C4D0D4C641BA410FC
:10062000A64209D100F01AF800260A4D0A4C641BB4
:10063000A410A64205D170BD55F8043B9847013679
:10064000EEE755F8043B98470136F2E774060008D8
:10065000740600087406000878060008F8B500BFA4
:10066000F8BC08BC9E467047F8B500BFF8BC08BC93
:040670009E467047EB
:040674005501000824
:040678003101000844
:04000005080001717D
:00000001FF
